:020000040800F2
:10000000C804002005010008EB030008E303000812
:10001000E7030008EF010008551000080000000089
:10002000000000000000000000000000EF0C0008CD
:100030006D02000800000000F5080008D90D000856
:100040001F0100081F0100081F0100081F01000810
:100050001F0100081F0100081F0100081F01000800
:100060001F0100081F0100081F0100081F010008F0
:100070001F0100081F0100081F0100081F010008E0
:100080001F0100081F0100081F0100081F010008D0
:100090001F0100081F0100081F0100081F010008C0
:1000A0001F0100081F0100081F0100081F010008B0
:1000B0001F0100081F0100081F0100081F010008A0
:1000C0001F0100081F0100081F010008B10B0008F4
:1000D0001F0100081F0100081F0100081F01000880
:1000E0001F0100081F0100081F010008DFF810D0E1
:1000F00000F04CF8004800477D130008AFF3008083
:10010000C80400200648804706480047FEE7FEE78F
:10011000FEE7FEE7FEE7FEE7FEE7FEE7FEE7FEE7B7
:10012000E90D0008ED0000082DE9F05F054600200C
:1001300092469B4688460646814640241BE0284658
:1001400041464746224600F042F853465A46C01AF6
:10015000914110D311461846224600F029F82D1A75
:1001600067EB01084F4622460120002100F020F8ED
:1001700017EB00094E41201EA4F10104DFDC4846C4
:1001800031462A464346BDE8F09F0000064C074D25
:1001900006E0E06840F0010394E807009847103457
:1001A000AC42F6D3FFF7A6FF08170008281700088F
:1001B000202A04DB203A00FA02F100207047914027
:1001C000C2F1200320FA03F3194390407047202A1C
:1001D00004DB203A21FA02F00021704721FA02F3F1
:1001E000D040C2F12002914008431946704700BF39
:1001F000FEE7000010B5044600F09EFB4FF480308F
:1002000000F05CFC00F0B8FC174908700846007864
:10021000012826D1102000F03FF8022000F04AF813
:10022000002000F03FFC002000F07AFC4FF48060DA
:1002300000F06AFC21464FF4803000F083FC01207E
:1002400000F07AFC00BF392000F006FC0028FAD04C
:10025000022000F085FC00BF00F01CFC0828FBD148
:1002600001E000BFFEE710BD3800002070470146E6
:1002700042F6E06201FB02F000E0401E0028FCD1E3
:10028000704700000349086000BF0249096800295F
:10029000FBD170473C0000200549096821F010019E
:1002A000034A11601146096801431160704700005C
:1002B0000020024001460020034A106800F0380088
:1002C0000843106070470000002002402DE9F04113
:1002D000024600250026002000230024002791F874
:1002E00003C00CF00F0591F803C00CF0100CBCF12A
:1002F000000F03D091F802C04CEA050591F800C048
:10030000BCF1000F31D0146800202BE04FF0010C3D
:100310000CFA00F3B1F800C00CEA03069E4220D1AB
:1003200083004FF00F0C0CFA03F7BC4305FA03FCF3
:100330004CEA040491F803C0BCF1280F06D14FF039
:10034000010C0CFA00FCC2F814C00AE091F803C0DA
:10035000BCF1480F05D14FF0010C0CFA00FCC2F8BB
:1003600010C0401C0828D1D31460B1F800C0BCF103
:10037000FF0F34DD546800202EE000F1080C4FF030
:10038000010808FA0CF3B1F800C00CEA03069E421B
:1003900021D183004FF00F0C0CFA03F7BC4305FA90
:1003A00003FC4CEA040491F803C0BCF1280F05D10A
:1003B00000F1080C08FA0CF8C2F8148091F803C098
:1003C000BCF1480F07D100F1080C4FF0010808FA02
:1003D0000CF8C2F81080401C0828CED35460BDE849
:1003E000F08100BFFEE700BFFEE7704770B5002157
:1003F00000230F22C47804B3154C246804F4E0648D
:10040000C4F5E064210AC1F10403CA40447804FA47
:1004100003F184781440214309010E4C0678A1555C
:10042000047804F01F050124AC4005786D11AD007F
:1004300005F1E025C5F8004109E0047804F01F0546
:100440000124AC40044D0678761145F8264070BD75
:100450000CED00E000E400E080E100E070B504464F
:10046000032545F020052146284600F081F970BD9E
:100470002DE9F04104460D46042646F0200644EAE4
:1004800005073946304600F073F9BDE8F0810000F9
:1004900070B50446002545F02005002000F012F953
:1004A0000448407800F0FB0626433146284600F019
:1004B0005FF970BDA600002070B5072000F002F9BA
:1004C0000548407840F07005072444F02004294690
:1004D000204600F04DF970BDA600002070B504461E
:1004E000012545F0200504F03F042146284600F090
:1004F0003FF970BD10B50B48006840F01000094985
:100500000860E121084800F0D2FB012001F0E2F888
:100510000448001F006840F010000249091F0860ED
:1005200010BD0000140801400030014010B5032048
:1005300000F0C8F808484078012804D0022804D008
:10054000032806D103E0032010BD0420FCE70520AA
:10055000FAE70020F8E70000A600002010B5072009
:1005600000F0B0F801484478204610BDA6000020F5
:1005700070B50446002545F02005002000F0A2F8E3
:100580000448407800F0FE0626433146284600F035
:10059000EFF870BDA600002070B50446002545F0B8
:1005A0002005002000F08EF80448407800F0FD0699
:1005B00026433146284600F0DBF870BDA600002037
:1005C0002DE9F04105460C46FFF7B0FF074605F060
:1005D0001F0646F02006A5F10A00072835D2DFE8FD
:1005E00000F005062C2D2E2F040000BF00BF184878
:1005F000006840F01000164908603146154800F0C8
:1006000056FB012001F066F807E02178114800F060
:100610004EFB012001F05EF8641C381EA7F10101B9
:10062000CFB2F2D10C4908700948001F006840F0B1
:1006300010000749091F086007E000BF00BF00BFA6
:100640002178304600F094F800BF00BFBDE8F0818B
:1006500014080140003001404800002070B50446F5
:10066000062545F02005062000F02CF804484078C7
:1006700000F0D70626433146284600F079F870BDD1
:10068000A600002070B50446052545F0200504F0BD
:100690007F042146284600F06BF870BD70B5044613
:1006A000062545F02005062000F00CF804484078A7
:1006B00000F0F90626433146284600F059F870BD8F
:1006C000A600002070B5044601226021254800F0F4
:1006D000DBFA2548006840F01000234908600A2C26
:1006E00003D00B2C01D0102C1AD100BF02211D48C1
:1006F00000F0A7FA0028F9D021461A4800F0D7FAEE
:10070000012000F0E7FF002507E0FF21154800F079
:10071000CEFA012000F0DEFF6D1C052DF5DB14E0A4
:1007200000BF02210F4800F08CFA0028F9D02146C2
:100730000C4800F0BCFA012000F0CCFFFF21094872
:1007400000F0B5FA012000F0C5FF0748001F00685F
:1007500040F010000449091F086000200349087098
:1007600070BD000000300140140801404800002026
:1007700070B504460D4600226021194800F084FA45
:1007800004F01F0444F020041648006840F01000F4
:100790001449086000BF0221114800F052FA0028F5
:1007A000F9D021460E4800F082FA012000F092FFB5
:1007B00029460B4800F07BFA012000F08BFF094826
:1007C000001F006840F010000649091F0860012260
:1007D0006021034800F058FA00200349087070BDFA
:1007E00000300140140801404800002070B5044664
:1007F0000D4600226021184800F046FA17480068AC
:1008000040F0100015490860A021134800F04FFA8D
:10081000012000F05FFF0CE021780F4800F047FA5C
:10082000012000F057FF21782A460DA000F014FCAB
:10083000641C281EA5F10101CDB2EDD10748001FAF
:10084000006840F010000549091F0860012260217E
:10085000014800F019FA70BD003001401408014051
:100860000A643A20256320636F756E743A2564002C
:1008700010B508210020FFF77BFF3F210120FFF783
:1008800077FF03210220FFF773FF03210846FFF7DC
:100890006FFF03210420FFF76BFF02210520FFF704
:1008A00067FF0E210620FFF763FF00210720FFF7F7
:1008B0005FFF00211120FFF75BFF00211220FFF7EF
:1008C00057FF00211320FFF753FF00211420FFF7EB
:1008D0004FFF00211520FFF74BFF00211620FFF7E7
:1008E00047FF00211C20FFF743FF00211D20FFF7D9
:1008F0003FFF10BD7047000029B1064AD26902438C
:10090000044BDA6104E0034AD2698243014BDA61A5
:10091000704700000010024029B1064A9269024364
:10092000044B9A6104E0034A92698243014B9A6145
:1009300070470000001002400F48006840F00100BE
:100940000D490860084640680C4908400A4948605B
:10095000084600680A4908400749086008460068D8
:1009600020F4802008600846406820F4FE004860BB
:100970004FF41F0088607047001002400000FFF82D
:10098000FFFFF6FE30B500210022002400232D4D8C
:100990006D6805F00C0121B1042905D0082923D187
:1009A00005E0294D056022E0274D05601FE0254D3B
:1009B0006D6805F47012234D6D6805F480340225CE
:1009C00005EB92421CB9214D554305600BE01D4DCE
:1009D0006D6805F400351DB11C4D5543056002E0FE
:1009E000194D5543056002E0174D056000BF00BF7B
:1009F000144D6D6805F0F0010909154D6B5C056833
:100A0000DD4045600F4D6D6805F4E061090A104D49
:100A10006B5C4568DD4085600A4D6D6805F460518A
:100A2000C90A0B4D6B5C4568DD40C560054D6D68BE
:100A300005F44041890B074D6B5CC568B5FBF3F5C8
:100A4000056130BD0010024000127A0000093D002F
:100A5000000000201000002010B5014600220023F5
:100A600000204A11012A02D1094C236806E0022A1B
:100A700002D1074C236A01E0054C636A01F01F02B2
:100A8000012494401C400CB1012000E0002010BD66
:100A9000001002400248406800F00C00704700005F
:100AA0000010024001460020034A506820F0F00088
:100AB0000843506070470000001002401149096867
:100AC00021F480310F4A11601146096821F4802118
:100AD0001160B0F5803F03D0B0F5802F0ED106E055
:100AE0000849096841F48031064A116007E0054968
:100AF000096841F4A021034A116000E000BF00BF73
:100B0000704700000010024001460020034A506870
:100B100020F4E0600843506070470000001002407D
:100B200001460020034A506820F4605040EAC100AA
:100B3000506070470010024001490866704700008D
:100B40000000424202460020044B586820F47C100A
:100B500042EA01031843014B5860704700100240FD
:100B600001460020034A506820F00300084350600B
:100B7000704700000010024038B5002000900024AB
:100B8000002500BF3120FFF767FF05460098401C95
:100B900000900098B0F5A06F01D0002DF2D0312068
:100BA000FFF75AFF08B1012400E00024204638BDB9
:100BB00010B56021104800F04DF8A0B10E4800F0CB
:100BC00073F80E490E4A1278885408460C4A127877
:100BD000815C0B4802780BA000F03EFA08480078D0
:100BE000401C074908706021034800F01DF860218F
:100BF000014800F01CF810BD00300140A6000020A4
:100C0000480000200A646174613A25582C2564006C
:100C100021B1028842F04002028004E002884FF6CF
:100C2000BF731A4002807047CA430281704710B5F3
:100C3000002201F00F040123A3409AB2D3430381A1
:100C400010BD0246002013890B400BB1012000E0CB
:100C500000207047F0B50246002000240023002544
:100C600001F00F070126BE40B4B20B1101269E40D1
:100C7000B3B2968806EA03051689264016B10DB16F
:100C8000012000E00020F0BD30B5002400230C114D
:100C90000125A540ABB21AB185881D43858002E0CD
:100CA00085889D43858030BD014688897047818154
:100CB000704710B50022028802F441520B884C881C
:100CC00023438C882343CC8823430C8923434C89BA
:100CD00023438C892343CC8923431A430280838B8B
:100CE0004FF2FF74234083830B8A038210BD704749
:100CF00010B500F001F810BD0CB500200190009077
:100D00003348006840F480303149086000BF304803
:100D1000006800F4003000900198401C0190009899
:100D200018B90198B0F5A06FF1D12948006800F416
:100D3000003010B10120009001E0002000900098E8
:100D4000012843D12348006840F010002149086081
:100D50000846006820F0030008600846006840F07C
:100D6000020008601A48406819494860084640680F
:100D700048600846406840F4806048600846406823
:100D800020F47C1048600846406840F4E810486051
:100D90000846006840F08070086000BF0C4800689A
:100DA00000F000700028F9D00948406820F00300E6
:100DB000074948600846406840F00200486000BFAC
:100DC0000348406800F00C000828F9D10CBD000071
:100DD000001002400020024002480068401E014905
:100DE000086070473C00002010B51348006840F0D0
:100DF00001001149086008464068104908400E4942
:100E00004860084600680E4908400B4908600846DB
:100E1000006820F4802008600846406820F4FE0046
:100E200048604FF41F008860FFF762FF4FF00060DA
:100E30000449086010BD0000001002400000FFF8E7
:100E4000FFFFF6FE08ED00E010B501210420FFF7DA
:100E500063FD01214804FFF74FFD04201C49088071
:100E60001820C870032088701A48FFF72FFA08204E
:100E7000174908800420C8701648FFF727FA4FF476
:100E8000E1301549086000208880C8800881888189
:100E90000C204881114800F06DF826201049087098
:100EA0000020887048700120C8700846FFF79EFA3D
:100EB00040F22551094800F015F8012240F2255171
:100EC000064800F031F80121044800F014F810BD84
:100ED0004000002000080140640000200044004061
:100EE0004400002001F40072B2F5007F00D100BF81
:100EF000CA430280704721B1828942F40052828144
:100F000004E082894DF6FF731A40828170470246E1
:100F10000020B1F5007F00D100BF13880B400BB15A
:100F2000012000E000207047F0B5034600240026B1
:100F30000025002040F66A17B94200D100BF1846CC
:100F4000C1F3421401F01F06012707FA06F5012C30
:100F500001D10C3004E0022C01D1103000E014303B
:100F60001AB107682F43076002E00768AF430760C4
:100F7000F0BD00002DE9F04786B005460E4600247E
:100F8000A24600BFA1460027B08900B100BF2F468E
:100F90002C8A4CF6FF700440F08804432C82AC8904
:100FA0004EF6F3100440B088318908437189084334
:100FB0000443AC81AC8A4FF6FF400440B08904433F
:100FC000AC8201A8FFF7DEFC1F48874202D1DDF8A2
:100FD00010A001E0DDF80CA0A88900F4004040B1A9
:100FE0000AEBCA0000EB0A1031684900B0FBF1F8C7
:100FF00007E00AEBCA0000EB0A1031688900B0FB79
:10100000F1F86420B8FBF0F004012009642101FB31
:101010001089A88900F4004040B1322000EBC900DB
:10102000B0FBF1F000F00700044308E0322000EBD1
:1010300009106421B0FBF1F000F00F0004432C8193
:1010400006B0BDE8F087000000380140C1F3080297
:101050008280704700BFFEE70FB4054B10B503A9AF
:10106000044A029800F018F810BC5DF814FB000068
:10107000591300084C00002002E008C8121F08C1E4
:10108000002AFAD170477047002001E001C1121F09
:10109000002AFBD1704700002DE9FF4F8DB09B4621
:1010A0000F460446002606E025280BD05A460F9925
:1010B0009047641C761C20780028F5D111B030468A
:1010C000BDE8F08F0025A8460122984900E00543BD
:1010D00014F8013F203B02FA03F00842F7D12078D0
:1010E0002E2817D114F8010F45F004052A280ED038
:1010F0006FF02F022078A0F1300109290AD808EBFF
:10110000880102EB410100EB0108641CF2E757F88B
:10111000048B641C20786C280DD004DC4C2812D081
:101120006A2811D104E074280DD07A280CD10AE085
:1011300045F4001507E0617845F48015814202D13D
:10114000641C05F58015641C2078692844D008DCEF
:101150000028B3D0582867D063280FD0642808D15E
:101160003AE0702865D0732812D075285AD07828B4
:101170005AD05A460F999047761CD5E017F8040BC1
:101180008DF8000000208DF80100E946012003E001
:1011900057F8049B4FF0FF3069074FF0000501D46A
:1011A0000AE06D1C45450DDA8542FADB19F8051099
:1011B0000029F6D106E06D1C8542FCDB19F805100C
:1011C0000029F8D12E4404E019F8010B5A460F9972
:1011D00090476D1EF8D2A7E00A200021CDE9080152
:1011E000C5F3025002280CD001CFC117021E71F1C5
:1011F00000020CDA0023D0EB030063EB01012D2287
:1012000008E0FF1D27F00707F7E80201EEE72A05CF
:1012100004D52B228DF8282001223CE0EA073AD0A1
:101220002022F7E70A2000E010200021CDE9080184
:1012300007E01020002145F00405CDE908014FF03A
:101240000808C5F30250022810D001CF00214FF04A
:10125000000A2A0720D52278702A0DD0DDE908C3BC
:101260008CF0100C5CEA030C0CD015E0FF1D27F08D
:101270000707F7E80201EAE740228DF828204FF03F
:10128000010A0CE050EA010306D030238DF8283023
:101290008DF82920022292462278582A04D024A2CE
:1012A0000DF120090B9209E026A2F9E7DDE90823F8
:1012B000FEF73AFF0B9B9B5C09F8013D50EA0102E7
:1012C000F4D1ADEB090020300890680701D44FF04D
:1012D00001080899884503DD0898A8EB000000E0A4
:1012E00000208046002506E00AA85A46405D0F9976
:1012F00090476D1C761C5545F6DB04E030205A46BD
:101300000F999047761CB8F10001A8F10108F5DCAF
:1013100005E019F8010B5A460F999047761C089979
:10132000481E08900029F4DC641CC4E6092801006A
:10133000303132333435363738396162636465664B
:10134000000000003031323334353637383941420D
:10135000434445460000000070B504460D46E1B226
:101360000548FFF773FE00BF40210348FFF7CFFD9C
:101370000028F9D0204670BD004400400EB54FF45F
:10138000E010FEF737FFFFF75FFD00F03BF96D4817
:10139000FFF7F8FA6B4800686B4908606B48006813
:1013A0004FF47A72B0FBF2F1B1F1807F00D322E00A
:1013B00021F07F40401E4FF0E022506150170F2275
:1013C00000280ADA13074FEA1369614B00F00F0C8B
:1013D000ACF1040C03F80C9005E013074FEA136C12
:1013E0005C4B03F800C000BF00204FF0E02290618A
:1013F0000720106100BF6420FEF744FF52480168D7
:1014000055A0FFF729FE58A0FFF726FE0320FEF7A0
:1014100039FFFFF72DFA0320FEF734FF5448006828
:1014200040F00200524908600120FFF757F873208E
:10143000FFF728F90820FFF711F90620FFF72EF92A
:101440000420FFF725F80320FFF708F8494910208A
:10145000FFF7B6F847490A20FFF7B2F80020FFF778
:1014600087F80F219020FFF703F8FFF725F80220F7
:10147000FFF792F840A0FFF7EFFD00F021F90446D6
:10148000214642A0FFF7E8FD261104F00F07314680
:1014900041A0FFF7E1FD394647A0FFF7DDFD3448E5
:1014A000006840F00200324908604DA207CA8DE88A
:1014B00007004FF00A0843E02D48006840F00200A2
:1014C0002B490860FFF716F841466846FFF78EF98A
:1014D0002748001F006840F002002549091F0860E6
:1014E000FFF73CF805460A20FEF7C1FE05F020098B
:1014F0000A20FEF7BCFE05F0080A0A20FEF7B7FE38
:1015000049463AA0FFF7A8FD0A20FEF7B0FE514673
:1015100039A0FFF7A1FD00F0D3F80446261104F02E
:101520000F0731461CA0FFF797FD394622A0FFF7B1
:1015300093FD4FF4FA70FEF79AFEFEF7BDFF00BF71
:10154000BAE7000050000020140000202400002012
:1015500018ED00E000E400E06672657175656E6389
:10156000793A20256400000068656C6C6F0A000001
:10157000140801401C0000202F2F2D2D2D2D2D2D66
:101580002D544553542D2D2D2D2D2D000A696E6699
:101590006F72203D202558000A504C4F533A20636B
:1015A0006F756E746572206C6F7374207061636BFD
:1015B0006574203D202564000A4152433A20636F40
:1015C000756E746572207472616E736D6974656492
:1015D000207061636B6574203D202564000000006D
:1015E000455342746573742E2E2E00000A54585FC2
:1015F00044533A20256400000A4D41585F52543A42
:101600002025640010B5012141F20400FFF784F9A0
:10161000A02026490880012088701820C87024481E
:10162000FEF754FE4020214908800420C87020485D
:10163000FEF74CFE12201D4908801020C8701C487F
:10164000FEF744FE00201B4908804FF4827048805A
:1016500000208880C88008814FF4007048811020E5
:1016600088810020C881072008821348FFF721FBEA
:10167000002260211048FFF707FB01210E48FFF709
:10168000C7FA23200D490870002048708870012097
:10169000C8700846FEF7AAFE05481430006840F0FE
:1016A000020003491431086010BD00004000002012
:1016B0000008014074000020003001404400002078
:1016C00010B50820FEF7FEFF01484478204610BD03
:1016D000A600002000EB8002510000E0491E002916
:1016E000FCD1704768656C6C79656168206D6F74BA
:1016F0006865726675636B65722068656C6C666997
:101700007265206D0000000028170008000000200E
:1017100050000000781000087817000850000020E2
:101720007804000088100008000000000102030493
:10173000010203040607080902040608000000006D
:10174000E41600080105032C3500000000A24A043D
:101750000000000000000000010203040607080961
:101760000000000000000000000000000000000079
:08177000000000000000000071
:04000005080000ED02
:00000001FF
